:020000040000FA
:040000005BEF3FF083
:107EB00001C0CBFF1200000187EF3FF0BD90BD92E3
:107EC000BD84BD86CA84D398D38AD38C9494959E5E
:107ED000959C959ACA90CA82B78E120001C092FFF3
:107EE00092A202D0BD8A01D0BD9A92A002D0BD88D4
:107EF00001D0BD9801C003F002C004F00434043284
:107F000003320434043203320350BE6E12009B0E5F
:107F1000016E000E026E000E036E000E046E58EC31
:107F20003FF05EEC3FF0000E0A6E000E096E000E90
:107F30000C6E000E0B6E000E066E000E056E958028
:107F4000000E086E000E076EA6EF3FF083B0ABEF99
:107F50003FF0ADEF3FF0F2EF3FF0010E0924096E64
:107F6000000E0A200A6E000E026E050E016E6EEC07
:107F70003FF0000E0C6E000E0B6E0CBEC9EF3FF012
:107F80000C5009E1C80E0B5CD8A0C9EF3FF0CBEF55
:107F90003FF0CFEF3FF0E1EF3FF0E1EF3FF00B4A72
:107FA0000C2A0CBEDDEF3FF00C5009E1C80E0B5C53
:107FB000D8A0DDEF3FF0DFEF3FF0CFEF3FF0E1EF94
:107FC0003FF009280A10D8A4E8EF3FF0EAEF3FF0AD
:107FD000A6EF3FF0000E0A6E000E096EA6EF3FF00E
:107FE000A6EF3FF0000E026E000E016E6EEC3FF049
:107FF000A6EF3FF0A6EF3FF0A6EF3FF000EF00F056
:020000040020DA
:08000000FFFFFFFFFFFFFFFF00
:020000040030CA
:0E000000FF081B1EFF8381FF0FC00FE00F40A3
:00000001FF
