:020000040000FA
:0400000095EF35F053
:106B240001C0CBFF12000C6A0B6A00016CEF36F057
:106B3400000E026E000E016E06EC36F01200BD90DF
:106B4400BD92BD84BD86CA84D398D38AD38C9494D1
:106B5400959E959C959ACA90CA82B78E1200E00EB3
:106B6400016E000E026E000E036E000E046E92ECB7
:106B740035F0000E026EFA0E016E06EC36F01200CD
:106B8400A50E016E000E026E000E036E000E046E62
:106B940092EC35F0000E026EFA0E016E06EC36F041
:106BA4001200AF0E016E000E026E000E036E000E98
:106BB400046E92EC35F0000E026EFA0E016E06ECD5
:106BC40036F01200C70E016E000E026E000E036E48
:106BD400000E046E92EC35F0000E026EFA0E016E99
:106BE40006EC36F01200910E016E000E026E000EDD
:106BF400036E000E046E92EC35F0000E026EFA0E77
:106C0400016E06EC36F0120001C092FF92A202D08F
:106C1400BD8A01D0BD9A92A002D0BD8801D0BD9892
:106C240001C003F002C004F004340432033204341B
:106C3400043203320350BE6E1200000E026E000EC8
:106C4400016E02BE2FEF36F0880E015C130E02585F
:106C5400D8A02FEF36F031EF36F035EF36F06BEF8A
:106C640036F06BEF36F083A23AEF36F03CEF36F0B5
:106C740053EF36F083A441EF36F043EF36F053EF91
:106C840036F083A648EF36F04AEF36F053EF36F08D
:106C940082B64FEF36F051EF36F059EF36F053EF3E
:106CA40036F0000E0C6E010E0B6E59EF36F0014AF1
:106CB400022A02BE67EF36F0880E015C130E0258FA
:106CC400D8A067EF36F069EF36F035EF36F06BEFAA
:106CD40036F01200A1EC35F0000E066E000E056EC3
:106CE400000E086E000E076E000E0A6E000E096E8E
:106CF40095809582958495869486000E926E000EFA
:106D0400896E85EF36F083B08AEF36F08CEF36F07B
:106D140093EF36F0D8EC36F08980E4EC35F085EF6B
:106D240036F083B298EF36F09AEF36F09FEF36F0F4
:106D34008982B1EC35F085EF36F082B6A4EF36F0F7
:106D4400A6EF36F0AAEF36F0D3EC35F085EF36F047
:106D540083B6AFEF36F0B1EF36F0B5EF36F0C2ECF4
:106D640035F085EF36F083B4BAEF36F0BCEF36F089
:106D7400C0EF36F0F5EC35F085EF36F0000E026E1C
:106D8400000E016E06EC36F0000E896E85EF36F0CB
:106D940085EF36F085EF36F085EF36F085EF36F087
:106DA40085EF36F085EF36F000EF00F0F5EC35F0C6
:106DB4001FEC36F00B040C10D8A4E3EF36F0E5EF2B
:106DC40036F0EDEF36F0000E0C6E000E0B6EFFEF9A
:106DD4003FF0FFEF3FF09AEC35F01FEC36F00B0478
:106DE4000C10D8A4F8EF36F0FAEF36F002EF37F0D3
:106DF400000E0C6E000E0B6EFFEF3FF0FFEF3FF046
:106E0400D3EC35F01FEC36F00B040C10D8A40DEFC6
:106E140037F00FEF37F017EF37F0000E0C6E000E5F
:106E24000B6EFFEF3FF0FFEF3FF09AEC35F01FECF5
:106E340036F00B040C10D8A422EF37F024EF37F00F
:106E44002CEF37F0000E0C6E000E0B6EFFEF3FF0D0
:106E5400FFEF3FF0D3EC35F01FEC36F00B040C10D1
:106E6400D8A437EF37F039EF37F041EF37F0000EA1
:106E74000C6E000E0B6EFFEF3FF0FFEF3FF01FECC8
:106E840036F00B040C10D8A44AEF37F04CEF37F06F
:106E940054EF37F0000E0C6E000E0B6EFFEF3FF058
:106EA400FFEF3FF09AEC35F01FEC36F00B040C10BA
:106EB400D8A45FEF37F061EF37F069EF37F0000ED9
:106EC4000C6E000E0B6EFFEF3FF0FFEF3FF0C2ECD5
:106ED40035F01FEC36F00B040C10D8A474EF37F027
:106EE40076EF37F07EEF37F0000E0C6E000E0B6E6F
:106EF400FFEF3FF0FFEF3FF09AEC35F01FEC36F078
:106F04000B040C10D8A489EF37F08BEF37F093EF14
:106F140037F0000E0C6E000E0B6EFFEF3FF0FFEF2C
:106F24003FF0E4EC35F01FEC36F00B040C10D8A461
:106F34009EEF37F0A0EF37F0A8EF37F0000E0C6E9D
:106F4400000E0B6EFFEF3FF0FFEF3FF09AEC35F0D1
:106F54001FEC36F00B040C10D8A4B3EF37F0B5EFE8
:106F640037F0BDEF37F0000E0C6E000E0B6EFFEF26
:106F74003FF0FFEF3FF0E4EC35F01FEC36F00B048C
:106F84000C10D8A4C8EF37F0CAEF37F0D2EF37F0BF
:106F9400000E0C6E000E0B6EFFEF3FF0FFEF3FF0A4
:106FA4001FEC36F00B040C10D8A4DBEF37F0DDEF48
:106FB40037F0E5EF37F0000E0C6E000E0B6EFFEFAE
:106FC4003FF0FFEF3FF09AEC35F01FEC36F00B0486
:106FD4000C10D8A4F0EF37F0F2EF37F0FAEF37F0F7
:106FE400000E0C6E000E0B6EFFEF3FF0FFEF3FF054
:106FF400B1EC35F01FEC36F00B040C10D8A405EFFF
:1070040038F007EF38F00FEF38F0000E0C6E000E7A
:107014000B6EFFEF3FF0FFEF3FF09AEC35F01FEC03
:1070240036F00B040C10D8A41AEF38F01CEF38F02B
:1070340024EF38F0000E0C6E000E0B6EFFEF3FF0E5
:10704400FFEF3FF0E4EC35F01FEC36F00B040C10CE
:10705400D8A42FEF38F031EF38F039EF38F0000EC4
:107064000C6E000E0B6EFFEF3FF0FFEF3FF09AEC5B
:1070740035F01FEC36F00B040C10D8A444EF38F0B4
:1070840046EF38F04EEF38F0000E0C6E000E0B6E2B
:10709400FFEF3FF0FFEF3FF0D3EC35F01FEC36F09D
:1070A4000B040C10D8A459EF38F05BEF38F063EF01
:1070B40038F0000E0C6E000E0B6EFFEF3FF0FFEF8A
:1070C4003FF09AEC35F01FEC36F00B040C10D8A40A
:1070D4006EEF38F070EF38F078EF38F0000E0C6E89
:1070E400000E0B6EFFEF3FF0FFEF3FF0C2EC35F008
:1070F4001FEC36F00B040C10D8A483EF38F085EFA6
:1071040038F08DEF38F0000E0C6E000E0B6EFFEFB2
:107114003FF0FFEF3FF09AEC35F01FEC36F00B0434
:107124000C10D8A498EF38F09AEF38F0A2EF38F0AA
:10713400000E0C6E000E0B6EFFEF3FF0FFEF3FF002
:10714400F5EC35F01FEC36F00B040C10D8A4ADEFC1
:1071540038F0AFEF38F0B7EF38F0000E0C6E000ED9
:107164000B6EFFEF3FF0FFEF3FF09AEC35F01FECB2
:1071740036F00B040C10D8A4C2EF38F0C4EF38F08A
:10718400CCEF38F0000E0C6E000E0B6EFFEF3FF0EC
:10719400FFEF3FF0F5EC35F01FEC36F00B040C106C
:1071A400D8A4D7EF38F0D9EF38F0E1EF38F0000E7B
:1071B4000C6E000E0B6EFFEF3FF0FFEF3FF09AEC0A
:1071C40035F01FEC36F00B040C10D8A4ECEF38F0BB
:1071D400EEEF38F0F6EF38F0000E0C6E000E0B6E8A
:1071E400FFEF3FF0FFEF3FF0F5EC35F01FEC36F02A
:1071F4000B040C10D8A401EF39F003EF39F00BEFB6
:1072040039F0000E0C6E000E0B6EFFEF3FF0FFEF37
:107214003FF01FEC36F00B040C10D8A414EF39F037
:1072240016EF39F01EEF39F0000E0C6E000E0B6EE7
:10723400FFEF3FF0FFEF3FF09AEC35F01FEC36F034
:107244000B040C10D8A429EF39F02BEF39F033EFED
:1072540039F0000E0C6E000E0B6EFFEF3FF0FFEFE7
:107264003FF0F5EC35F01FEC36F00B040C10D8A40D
:107274003EEF39F040EF39F048EF39F0000E0C6E74
:10728400000E0B6EFFEF3FF0FFEF3FF09AEC35F08E
:107294001FEC36F00B040C10D8A453EF39F055EF63
:1072A40039F05DEF39F0000E0C6E000E0B6EFFEF3F
:1072B4003FF0FFEF3FF0D3EC35F01FEC36F00B045A
:1072C4000C10D8A468EF39F06AEF39F072EF39F096
:1072D400000E0C6E000E0B6EFFEF3FF0FFEF3FF061
:1072E4009AEC35F01FEC36F00B040C10D8A47DEFAB
:1072F40039F07FEF39F087EF39F0000E0C6E000E95
:107304000B6EFFEF3FF0FFEF3FF0D3EC35F01FECD7
:1073140036F00B040C10D8A492EF39F094EF39F046
:107324009CEF39F0000E0C6E000E0B6EFFEF3FF079
:10733400FFEF3FF01FEC36F00B040C10D8A4A5EFC0
:1073440039F0A7EF39F0AFEF39F0000E0C6E000EF4
:107354000B6EFFEF3FF0FFEF3FF09AEC35F01FECC0
:1073640036F00B040C10D8A4BAEF39F0BCEF39F0A6
:10737400C4EF39F0000E0C6E000E0B6EFFEF3FF001
:10738400FFEF3FF0C2EC35F01FEC36F00B040C10AD
:10739400D8A4CFEF39F0D1EF39F0D9EF39F0000E9E
:1073A4000C6E000E0B6EFFEF3FF0FFEF3FF09AEC18
:1073B40035F01FEC36F00B040C10D8A4E4EF39F0D0
:1073C400E6EF39F0EEEF39F0000E0C6E000E0B6EA6
:1073D400FFEF3FF0FFEF3FF0E4EC35F01FEC36F049
:1073E4000B040C10D8A4F9EF39F0FBEF39F003EFDC
:1073F4003AF0000E0C6E000E0B6EFFEF3FF0FFEF45
:107404003FF09AEC35F01FEC36F00B040C10D8A4C6
:107414000EEF3AF010EF3AF018EF3AF0000E0C6E5F
:10742400000E0B6EFFEF3FF0FFEF3FF0E4EC35F0A2
:107434001FEC36F00B040C10D8A423EF3AF025EF20
:107444003AF02DEF3AF0000E0C6E000E0B6EFFEFCB
:107454003FF0FFEF3FF01FEC36F00B040C10D8A404
:1074640036EF3AF038EF3AF040EF3AF0000E0C6E97
:10747400000E0B6EFFEF3FF0FFEF3FF09AEC35F09C
:107484001FEC36F00B040C10D8A44BEF3AF04DEF80
:107494003AF055EF3AF0000E0C6E000E0B6EFFEF53
:1074A4003FF0FFEF3FF0B1EC35F01FEC36F00B048A
:1074B4000C10D8A460EF3AF062EF3AF06AEF3AF0B9
:1074C400000E0C6E000E0B6EFFEF3FF0FFEF3FF06F
:1074D4009AEC35F01FEC36F00B040C10D8A475EFC1
:1074E4003AF077EF3AF07FEF3AF0000E0C6E000EB0
:1074F4000B6EFFEF3FF0FFEF3FF0D3EC35F01FECE6
:1075040036F00B040C10D8A48AEF3AF08CEF3AF062
:1075140094EF3AF0000E0C6E000E0B6EFFEF3FF08E
:10752400FFEF3FF09AEC35F01FEC36F00B040C1033
:10753400D8A49FEF3AF0A1EF3AF0A9EF3AF0000E89
:107544000C6E000E0B6EFFEF3FF0FFEF3FF0F5EC1B
:1075540035F01FEC36F00B040C10D8A4B4EF3AF05D
:10756400B6EF3AF0BEEF3AF0000E0C6E000E0B6E62
:10757400FFEF3FF0FFEF3FF09AEC35F01FEC36F0F1
:107584000B040C10D8A4C9EF3AF0CBEF3AF0D3EFC8
:107594003AF0000E0C6E000E0B6EFFEF3FF0FFEFA3
:1075A4003FF0F5EC35F01FEC36F00B040C10D8A4CA
:1075B400DEEF3AF0E0EF3AF0E8EF3AF0000E0C6E4E
:1075C400000E0B6EFFEF3FF0FFEF3FF09AEC35F04B
:1075D4001FEC36F00B040C10D8A4F3EF3AF0F5EFDF
:1075E4003AF0FDEF3AF0000E0C6E000E0B6EFFEF5A
:1075F4003FF0FFEF3FF0D3EC35F01FEC36F00B0417
:107604000C10D8A408EF3BF00AEF3BF012EF3BF06C
:10761400000E0C6E000E0B6EFFEF3FF0FFEF3FF01D
:107624001FEC36F00B040C10D8A41BEF3BF01DEF3D
:107634003BF025EF3BF0000E0C6E000E0B6EFFEFDF
:107644003FF0FFEF3FF01FEC36F00B040C10D8A412
:107654002EEF3BF030EF3BF038EF3BF0000E0C6EBA
:10766400000E0B6EFFEF3FF0FFEF3FF01FEC36F024
:107674000B040C10D8A441EF3BF043EF3BF04BEF6D
:107684003BF0000E0C6E000E0B6EFFEF3FF0FFEFB1
:107694003FF09AEC35F01FEC36F00B040C10D8A434
:1076A40056EF3BF058EF3BF060EF3BF0000E0C6EF2
:1076B400000E0B6EFFEF3FF0FFEF3FF0E4EC35F010
:1076C4001FEC36F00B040C10D8A46BEF3BF06DEFFD
:1076D4003BF075EF3BF0000E0C6E000E0B6EFFEFEF
:1076E4003FF0FFEF3FF09AEC35F01FEC36F00B045F
:1076F4000C10D8A480EF3BF082EF3BF08AEF3BF014
:10770400000E0C6E000E0B6EFFEF3FF0FFEF3FF02C
:10771400E4EC35F01FEC36F00B040C10D8A495EF14
:107724003BF097EF3BF09FEF3BF0000E0C6E000E2A
:107734000B6EFFEF3FF0FFEF3FF09AEC35F01FECDC
:1077440036F00B040C10D8A4AAEF3BF0ACEF3BF0DE
:10775400B4EF3BF0000E0C6E000E0B6EFFEF3FF02B
:10776400FFEF3FF0E4EC35F01FEC36F00B040C10A7
:10777400D8A4BFEF3BF0C1EF3BF0C9EF3BF0000EE4
:107784000C6E000E0B6EFFEF3FF0FFEF3FF09AEC34
:1077940035F01FEC36F00B040C10D8A4D4EF3BF0FA
:1077A400D6EF3BF0DEEF3BF0000E0C6E000E0B6EDE
:1077B400FFEF3FF0FFEF3FF0E4EC35F01FEC36F065
:1077C4000B040C10D8A4E9EF3BF0EBEF3BF0F3EF24
:1077D4003BF0000E0C6E000E0B6EFFEF3FF0FFEF60
:1077E4003FF09AEC35F01FEC36F00B040C10D8A4E3
:1077F400FEEF3BF000EF3CF008EF3CF0000E0C6EA7
:10780400000E0B6EFFEF3FF0FFEF3FF0E4EC35F0BE
:107814001FEC36F00B040C10D8A413EF3CF015EF5A
:107824003CF01DEF3CF0000E0C6E000E0B6EFFEFF3
:107834003FF0FFEF3FF09AEC35F01FEC36F00B040D
:107844000C10D8A428EF3CF02AEF3CF032EF3CF0C7
:10785400000E0C6E000E0B6EFFEF3FF0FFEF3FF0DB
:10786400D3EC35F01FEC36F00B040C10D8A43DEF2C
:107874003CF03FEF3CF047EF3CF0000E0C6E000E86
:107884000B6EFFEF3FF0FFEF3FF09AEC35F01FEC8B
:1078940036F00B040C10D8A452EF3CF054EF3CF03B
:1078A4005CEF3CF0000E0C6E000E0B6EFFEF3FF031
:1078B400FFEF3FF0C2EC35F01FEC36F00B040C1078
:1078C400D8A467EF3CF069EF3CF071EF3CF0000E98
:1078D4000C6E000E0B6EFFEF3FF0FFEF3FF01FEC5E
:1078E40036F00B040C10D8A47AEF3CF07CEF3CF09B
:1078F40084EF3CF0000E0C6E000E0B6EFFEF3FF0B9
:10790400FFEF3FF09AEC35F01FEC36F00B040C104F
:10791400D8A48FEF3CF091EF3CF099EF3CF0000ECF
:107924000C6E000E0B6EFFEF3FF0FFEF3FF0D3EC59
:1079340035F01FEC36F00B040C10D8A4A4EF3CF087
:10794400A6EF3CF0AEEF3CF0000E0C6E000E0B6E9A
:10795400FFEF3FF0FFEF3FF09AEC35F01FEC36F00D
:107964000B040C10D8A4B9EF3CF0BBEF3CF0C3EF10
:107974003CF0000E0C6E000E0B6EFFEF3FF0FFEFBD
:107984003FF0D3EC35F01FEC36F00B040C10D8A408
:10799400CEEF3CF0D0EF3CF0D8EF3CF0000E0C6E94
:1079A400000E0B6EFFEF3FF0FFEF3FF09AEC35F067
:1079B4001FEC36F00B040C10D8A4E3EF3CF0E5EF19
:1079C4003CF0EDEF3CF0000E0C6E000E0B6EFFEF82
:1079D4003FF0FFEF3FF0D3EC35F01FEC36F00B0433
:1079E4000C10D8A4F8EF3CF0FAEF3CF002EF3DF0B5
:1079F400000E0C6E000E0B6EFFEF3FF0FFEF3FF03A
:107A04009AEC35F01FEC36F00B040C10D8A40DEFF3
:107A14003DF00FEF3DF017EF3DF0000E0C6E000E41
:107A24000B6EFFEF3FF0FFEF3FF0D3EC35F01FECB0
:107A340036F00B040C10D8A422EF3DF024EF3DF0F7
:107A44002CEF3DF0000E0C6E000E0B6EFFEF3FF0BE
:107A5400FFEF3FF09AEC35F01FEC36F00B040C10FE
:107A6400D8A437EF3DF039EF3DF041EF3DF0000E83
:107A74000C6E000E0B6EFFEF3FF0FFEF3FF0D3EC08
:107A840035F01FEC36F00B040C10D8A44CEF3DF08D
:107A94004EEF3DF056EF3DF0000E0C6E000E0B6EF7
:107AA400FFEF3FF0FFEF3FF09AEC35F01FEC36F0BC
:107AB4000B040C10D8A461EF3DF063EF3DF06BEFC5
:107AC4003DF0000E0C6E000E0B6EFFEF3FF0FFEF6B
:107AD4003FF0C2EC35F01FEC36F00B040C10D8A4C8
:107AE40076EF3DF078EF3DF080EF3DF0000E0C6E48
:107AF400000E0B6EFFEF3FF0FFEF3FF09AEC35F016
:107B04001FEC36F00B040C10D8A48BEF3DF08DEF76
:107B14003DF095EF3DF0000E0C6E000E0B6EFFEF86
:107B24003FF0FFEF3FF0F5EC35F01FEC36F00B04BF
:107B34000C10D8A4A0EF3DF0A2EF3DF0AAEF3DF069
:107B4400000E0C6E000E0B6EFFEF3FF0FFEF3FF0E8
:107B54001FEC36F00B040C10D8A4B3EF3DF0B5EFD6
:107B64003DF0BDEF3DF0000E0C6E000E0B6EFFEF0E
:107B74003FF0FFEF3FF09AEC35F01FEC36F00B04CA
:107B84000C10D8A4C8EF3DF0CAEF3DF0D2EF3DF0A1
:107B9400000E0C6E000E0B6EFFEF3FF0FFEF3FF098
:107BA400F5EC35F01FEC36F00B040C10D8A4DDEF27
:107BB4003DF0DFEF3DF0E7EF3DF0000E0C6E000E00
:107BC4000B6EFFEF3FF0FFEF3FF09AEC35F01FEC48
:107BD40036F00B040C10D8A4F2EF3DF0F4EF3DF0B6
:107BE400FCEF3DF0000E0C6E000E0B6EFFEF3FF04D
:107BF400FFEF3FF0D3EC35F01FEC36F00B040C1024
:107C0400D8A407EF3EF009EF3EF011EF3EF0000E6E
:107C14000C6E000E0B6EFFEF3FF0FFEF3FF09AEC9F
:107C240035F01FEC36F00B040C10D8A41CEF3EF01A
:107C34001EEF3EF026EF3EF0000E0C6E000E0B6EB3
:107C4400FFEF3FF0FFEF3FF0D3EC35F01FEC36F0E1
:107C54000B040C10D8A431EF3EF033EF3EF03BEFB1
:107C64003EF0000E0C6E000E0B6EFFEF3FF0FFEFC8
:107C74003FF01FEC36F00B040C10D8A444EF3EF098
:107C840046EF3EF04EEF3EF0000E0C6E000E0B6E13
:107C9400FFEF3FF0FFEF3FF09AEC35F01FEC36F0CA
:107CA4000B040C10D8A459EF3EF05BEF3EF063EFE9
:107CB4003EF0000E0C6E000E0B6EFFEF3FF0FFEF78
:107CC4003FF0C2EC35F01FEC36F00B040C10D8A4D6
:107CD4006EEF3EF070EF3EF078EF3EF0000E0C6E6B
:107CE400000E0B6EFFEF3FF0FFEF3FF09AEC35F024
:107CF4001FEC36F00B040C10D8A483EF3EF085EF94
:107D04003EF08DEF3EF0000E0C6E000E0B6EFFEF9A
:107D14003FF0FFEF3FF0E4EC35F01FEC36F00B04DE
:107D24000C10D8A498EF3EF09AEF3EF0A2EF3EF08C
:107D3400000E0C6E000E0B6EFFEF3FF0FFEF3FF0F6
:107D44009AEC35F01FEC36F00B040C10D8A4ADEF10
:107D54003EF0AFEF3EF0B7EF3EF0000E0C6E000EBB
:107D64000B6EFFEF3FF0FFEF3FF0E4EC35F01FEC5C
:107D740036F00B040C10D8A4C2EF3EF0C4EF3EF072
:107D8400CCEF3EF0000E0C6E000E0B6EFFEF3FF0DA
:107D9400FFEF3FF01FEC36F00B040C10D8A4D5EF26
:107DA4003EF0D7EF3EF0DFEF3EF0000E0C6E000E1B
:107DB4000B6EFFEF3FF0FFEF3FF09AEC35F01FEC56
:107DC40036F00B040C10D8A4EAEF3EF0ECEF3EF0D2
:107DD400F4EF3EF0000E0C6E000E0B6EFFEF3FF062
:107DE400FFEF3FF0B1EC35F01FEC36F00B040C1054
:107DF400D8A4FFEF3EF001EF3FF009EF3FF0000E93
:107E04000C6E000E0B6EFFEF3FF0FFEF3FF09AECAD
:107E140035F01FEC36F00B040C10D8A414EF3FF02F
:107E240016EF3FF01EEF3FF0000E0C6E000E0B6ECF
:107E3400FFEF3FF0FFEF3FF0D3EC35F01FEC36F0EF
:107E44000B040C10D8A429EF3FF02BEF3FF033EFD5
:107E54003FF0000E0C6E000E0B6EFFEF3FF0FFEFD5
:107E64003FF09AEC35F01FEC36F00B040C10D8A45C
:107E74003EEF3FF040EF3FF048EF3FF0000E0C6E56
:107E8400000E0B6EFFEF3FF0FFEF3FF0F5EC35F027
:107E94001FEC36F00B040C10D8A453EF3FF055EF51
:107EA4003FF05DEF3FF0000E0C6E000E0B6EFFEF27
:107EB4003FF0FFEF3FF09AEC35F01FEC36F00B0487
:107EC4000C10D8A468EF3FF06AEF3FF072EF3FF078
:107ED400000E0C6E000E0B6EFFEF3FF0FFEF3FF055
:107EE400F5EC35F01FEC36F00B040C10D8A47DEF44
:107EF4003FF07FEF3FF087EF3FF0000E0C6E000E77
:107F04000B6EFFEF3FF0FFEF3FF09AEC35F01FEC04
:107F140036F00B040C10D8A492EF3FF094EF3FF02E
:107F24009CEF3FF0000E0C6E000E0B6EFFEF3FF067
:107F3400FFEF3FF0B1EC35F01FEC36F00B040C1002
:107F4400D8A4A7EF3FF0A9EF3FF0B1EF3FF0000E48
:107F54000C6E000E0B6EFFEF3FF0FFEF3FF01FECD7
:107F640036F00B040C10D8A4BAEF3FF0BCEF3FF08E
:107F7400C4EF3FF0000E0C6E000E0B6EFFEF3FF0EF
:107F8400FFEF3FF01FEC36F00B040C10D8A4CDEF3C
:107F94003FF0CFEF3FF0D7EF3FF0000E0C6E000E36
:107FA4000B6EFFEF3FF0FFEF3FF01FEC36F00B04DA
:107FB4000C10D8A4E0EF3FF0E2EF3FF0EAEF3FF01F
:107FC400000E0C6E000E0B6EFFEF3FF0FFEF3FF064
:107FD4009AEC35F01FEC36F00B040C10D8A4F5EF36
:107FE4003FF0F7EF3FF0FFEF3FF0000E0C6E000E96
:0C7FF4000B6EFFEF3FF0FFEF3FF01200BC
:020000040020DA
:08000000FFFFFFFFFFFFFFFF00
:020000040030CA
:0E000000FF081B1EFF8381FF0FC00FE00F40A3
:00000001FF
