:020000040000FA
:0400000057EF38F08E
:1070A80001C0CBFF1200496A486A0001C8EF3CF0F2
:1070B80092680E0EC16EC08EC080C082C084000E61
:1070C800C46E000EC36E1200BD90BD92BD84BD8615
:1070D800CA84D398D38AD38C9494959E959C959A78
:1070E800CA90CA82B78E120001500302F3CF05F08E
:1070F800F4CF06F001500402F350062602500302B2
:10710800F350062605C001F006C002F08CEF38F0F7
:10711800120001C092FF92A202D0BD8A01D0BD9A8E
:1071280092A002D0BD8801D0BD9801C003F002C072
:1071380004F00434043203320434043203320350BA
:10714800BE6E1200C250C30B1C09C26EC282C2803E
:10715800AEEF38F0C2B2B3EF38F0B5EF38F0AEEFBB
:1071680038F0B7EF38F0C350C4CF03F0046A03C057
:1071780004F0036A0310056E0450066E05C001F0A2
:1071880006C002F0C8EF38F0120005040610D8A4B3
:10719800D0EF38F0D2EF38F0E4EF38F0E00E016EBF
:1071A800000E026E000E036E000E046E54EC38F0F2
:1071B800000E026EFA0E016E8DEC38F020EF39F0F9
:1071C800020E05180610D8A4ECEF38F0EEEF38F0F0
:1071D80000EF39F0C70E016E000E026E000E036E4E
:1071E800000E046E54EC38F0000E026EFA0E016EBA
:1071F8008DEC38F020EF39F0030E05180610D8A4EE
:1072080008EF39F00AEF39F020EF39F0AF0E016ED0
:10721800000E026E000E036E000E046E54EC38F081
:10722800000E026EFA0E016E8DEC38F020EF39F088
:1072380020EF39F020EF39F0120005040610D8A429
:1072480028EF39F02AEF39F03CEF39F0A50E016E3E
:10725800000E026E000E036E000E046E54EC38F041
:10726800000E026EFA0E016E8DEC38F078EF39F0F0
:10727800020E05180610D8A444EF39F046EF39F08D
:1072880058EF39F0910E016E000E026E000E036E7B
:10729800000E046E54EC38F0000E026EFA0E016E09
:1072A8008DEC38F078EF39F0030E05180610D8A4E5
:1072B80060EF39F062EF39F078EF39F0A50E016E22
:1072C800000E026E000E036E000E046E54EC38F0D1
:1072D800000E026EFA0E016E8DEC38F078EF39F080
:1072E80078EF39F078EF39F0120005040610D8A4C9
:1072F80080EF39F082EF39F094EF39F0FA0E016E31
:10730800000E026E000E036E000E046E54EC38F090
:10731800000E026EFA0E016E8DEC38F0D0EF39F0E7
:10732800020E05180610D8A49CEF39F09EEF39F02C
:10733800B0EF39F0C80E016E000E026E000E036E3B
:10734800000E046E54EC38F0000E026EFA0E016E58
:107358008DEC38F0D0EF39F0030E05180610D8A4DC
:10736800B8EF39F0BAEF39F0D0EF39F0960E016E78
:10737800000E026E000E036E000E046E54EC38F020
:10738800000E026EFA0E016E8DEC38F0D0EF39F077
:10739800D0EF39F0D0EF39F0120005040610D8A468
:1073A800D8EF39F0DAEF39F0ECEF39F0AF0E016EC3
:1073B800000E026E000E036E000E046E54EC38F0E0
:1073C800000E026EFA0E016E8DEC38F028EF3AF0DE
:1073D800020E05180610D8A4F4EF39F0F6EF39F0CC
:1073E80008EF3AF0A50E016E000E026E000E036E55
:1073F800000E046E54EC38F0000E026EFA0E016EA8
:107408008DEC38F028EF3AF0030E05180610D8A4D2
:1074180010EF3AF012EF3AF028EF3AF0910E016EC1
:10742800000E026E000E036E000E046E54EC38F06F
:10743800000E026EFA0E016E8DEC38F028EF3AF06D
:1074480028EF3AF028EF3AF0120005040610D8A405
:1074580030EF3AF032EF3AF044EF3AF0C70E016EEF
:10746800000E026E000E036E000E046E54EC38F02F
:10747800000E026EFA0E016E8DEC38F080EF3AF0D5
:10748800020E05180610D8A44CEF3AF04EEF3AF069
:1074980060EF3AF0AF0E016E000E026E000E036E42
:1074A800000E046E54EC38F0000E026EFA0E016EF7
:1074B8008DEC38F080EF3AF0030E05180610D8A4CA
:1074C80068EF3AF06AEF3AF080EF3AF0A50E016EF5
:1074D800000E026E000E036E000E046E54EC38F0BF
:1074E800000E026EFA0E016E8DEC38F080EF3AF065
:1074F80080EF3AF080EF3AF0120005040610D8A4A5
:1075080088EF3AF08AEF3AF09CEF3AF0FA0E016E03
:10751800000E026E000E036E000E046E54EC38F07E
:10752800000E026EFA0E016E8DEC38F0D8EF3AF0CC
:10753800020E05180610D8A4A4EF3AF0A6EF3AF008
:10754800B8EF3AF0C80E016E000E026E000E036E20
:10755800000E046E54EC38F0000E026EFA0E016E46
:107568008DEC38F0D8EF3AF0030E05180610D8A4C1
:10757800C0EF3AF0C2EF3AF0D8EF3AF0960E016E4B
:10758800000E026E000E036E000E046E54EC38F00E
:10759800000E026EFA0E016E8DEC38F0D8EF3AF05C
:1075A800D8EF3AF0D8EF3AF0120005040610D8A444
:1075B800E0EF3AF0E2EF3AF0F4EF3AF0FA0E016E4B
:1075C800000E026E000E036E000E046E54EC38F0CE
:1075D800000E026EFA0E016E8DEC38F030EF3BF0C3
:1075E800020E05180610D8A4FCEF3AF0FEEF3AF0A8
:1075F80010EF3BF0C80E016E000E026E000E036E17
:10760800000E046E54EC38F0000E026EFA0E016E95
:107618008DEC38F030EF3BF0030E05180610D8A4B7
:1076280018EF3BF01AEF3BF030EF3BF0960E016E8F
:10763800000E026E000E036E000E046E54EC38F05D
:10764800000E026EFA0E016E8DEC38F030EF3BF052
:1076580030EF3BF030EF3BF0120030343134376E0E
:107668003750D8A43AEF3BF03CEF3BF048EF3BF003
:10767800000E2E6E000E2F6E000E306E000E316E54
:10768800D9EF3BF0D9EF3BF02EC032F02FC033F0EA
:1076980030C034F031C035F0200E58EF3BF0D890B0
:1076A8003532343233323232E82E53EF3BF0325037
:1076B800366E308EFF0E2E16FF0E2F16FF0E30166A
:1076C800000E3116960E375E37BE6FEF3BF06DEF4A
:1076D8003BF093EF3BF03750800A970FD8B077EF25
:1076E8003BF079EF3BF087EF3BF0000E2E6E000E7B
:1076F8002F6E000E306E000E316ED9EF3BF0D9EFD1
:107708003BF087EF3BF0D890313230322F322E32B7
:10771800373E87EF3BF0BDEF3BF0BDEF3BF01F0E70
:10772800376499EF3BF09BEF3BF0B1EF3BF0000E75
:107738002E6E000E2F6E000E306E000E316ED9EFD9
:107748003BF0D9EF3BF0B1EF3BF0D8902E362F3617
:10775800303631363706B1EF3BF03750D8A4B7EFA3
:107768003BF0B9EF3BF0A9EF3BF0BDEF3BF0BDEFCD
:107778003BF03650D8B4C3EF3BF0C5EF3BF0CFEF4A
:107788003BF0311E301E2F1E2E6C000E2F22302291
:107798003122CFEF3BF02EC02EF02FC02FF030C09B
:1077A80030F031C031F0D9EF3BF012000F6E0F50BE
:1077B800D8B4E1EF3BF0E3EF3BF005EF3CF00ABE55
:1077C800EAEF3BF0E8EF3BF005EF3CF007C00BF0C9
:1077D80008C00CF009C00DF00AC00EF00B1E0C1EFC
:1077E8000D1E0E1E0B2A000E0C220D220E220BC09F
:1077F80011F00CC012F00DC013F00EC014F00FEF12
:107808003CF007C011F008C012F009C013F00AC01C
:1078180014F00FEF3CF00750081009100A10D8A414
:1078280018EF3CF01AEF3CF026EF3CF0000E076E24
:10783800000E086E000E096E000E0A6EC7EF3CF0CF
:10784800C7EF3CF0960E106E32EF3CF0102AD8903D
:10785800143213321232113232EF3CF0000E11148E
:107868000B6E000E12140C6E000E13140D6EFE0E2D
:1078780014140E6E0B500C100D100E10D8A447EFF8
:107888003CF049EF3CF02AEF3CF059EF3CF059EF5F
:107898003CF0102A010E1126000E12221322142287
:1078A800D8901432133212321132000E11140B6EAA
:1078B800000E12140C6E000E13140D6EFF0E14142D
:1078C8000E6E0B500C100D100E10D8A46EEF3CF07D
:1078D80070EF3CF04DEF3CF07CEF3CF07CEF3CF07F
:1078E8001006D89011361236133614367CEF3CF059
:1078F80013BE81EF3CF083EF3CF08DEF3CF0020EBD
:10790800106089EF3CF08BEF3CF074EF3CF08DEFAA
:107918003CF010B092EF3CF094EF3CF097EF3CF065
:10792800139E97EF3CF0D890103210C00BF00C6A01
:107938000D6A0E6A0BC00EF00D6A0C6A0B6A0B50CA
:1079480011120C5012120D5013120E5014120F5027
:10795800D8B4B1EF3CF0B3EF3CF0BDEF3CF00ABE59
:10796800BAEF3CF0B8EF3CF0BDEF3CF0148EBDEF41
:107978003CF011C007F012C008F013C009F014C0A1
:107988000AF0C7EF3CF0120068EC38F0000E3D6ECC
:10799800000E3C6E000E3F6E000E3E6E000E416EF5
:1079A800000E406E9580958295849586948695887C
:1079B800958A000E926E000E896E5CEC38F0E5EF49
:1079C8003CF0000E026E000E016EA6EC38F001C00D
:1079D80042F002C043F00C0E196E300E1A6E400EC3
:1079E8001B6E3B0E1C6E42C007F043C008F0000E31
:1079F80008BEFF0E096E0A6E010EDAEC3BF007C0F6
:107A080015F008C016F009C017F00AC018F0C9EC44
:107A18003DF015C02EF016C02FF017C030F018C07A
:107A280031F031EC3BF02EC044F02FC045F044C09B
:107A380001F045C002F0000E046E640E036E78EC8F
:107A480038F001C007F002C008F0000E08BEFF0EB3
:107A5800096E0A6E010EDAEC3BF007C038F008C078
:107A680039F009C03AF00AC03BF044C046F045C0BE
:107A780047F083B042EF3DF044EF3DF04DEF3DF06D
:107A8800898046C005F047C006F029EC3AF0E5EFDA
:107A98003CF083B252EF3DF054EF3DF05DEF3DF026
:107AA800898246C005F047C006F0C9EC38F0E5EF1A
:107AB8003CF082B662EF3DF064EF3DF06DEF3DF0D3
:107AC800898446C005F047C006F0D1EC39F0E5EFEF
:107AD8003CF083B672EF3DF074EF3DF07DEF3DF082
:107AE800898646C005F047C006F021EC39F0E5EF7D
:107AF8003CF083B482EF3DF084EF3DF08DEF3DF034
:107B0800898846C005F047C006F0D9EC3AF0E5EFA1
:107B18003CF083B892EF3DF094EF3DF09DEF3DF0DF
:107B2800898A46C005F047C006F079EC39F0E5EFE0
:107B38003CF083BAA2EF3DF0A4EF3DF0ADEF3DF08D
:107B4800898C46C005F047C006F081EC3AF0E5EFB5
:107B58003CF0000E026E000E016E8DEC38F0000E47
:107B6800896EE5EF3CF0E5EF3CF0E5EF3CF0E5EF42
:107B78003CF0E5EF3CF0E5EF3CF0E5EF3CF0E5EFFD
:107B88003CF0E5EF3CF000EF00F01850800B216E60
:107B980018501824276E17AED4EF3DF0D6EF3DF0FD
:107BA800D9EF3DF02780D9EF3DF02750D8B4DFEF6B
:107BB8003DF0E1EF3DF0F6EF3DF02728D8A4E7EFE0
:107BC8003DF0E9EF3DF0F3EF3DF0000E156E000ECD
:107BD800166E000E176E000E186EF3EF3DF0178E3E
:107BE80000EF3EF0000E156E000E166E000E176EBA
:107BF800000E186E00EF3EF01C50800B211A1C502E
:107C08001C24266E1BAE0BEF3EF00DEF3EF010EF7E
:107C18003EF0268010EF3EF02650D8B416EF3EF026
:107C280018EF3EF02DEF3EF02628D8A41EEF3EF0C8
:107C380020EF3EF02AEF3EF0000E196E000E1A6E8D
:107C4800000E1B6E000E1C6E2AEF3EF01B8E35EFE9
:107C58003EF0000E196E000E1A6E000E1B6E000E1E
:107C68001C6E2650D8B43BEF3EF03DEF3EF047EF98
:107C78003EF02750D8A443EF3EF045EF3EF053EFD7
:107C88003EF047EF3EF0000E156E000E166E000E29
:107C9800176E000E186EFFEF3FF0FFEF3FF01B501E
:107CA8001502F3CF2CF0F4CF2DF02C50226E236A5E
:107CB800246A256A2D50286E296A2A6A2B6A1A5066
:107CC8001602F3CF2CF0F4CF2DF02C502226000E04
:107CD8002322242225222D502826000E29222A225A
:107CE8002B2219501702F3CF2CF0F4CF2DF02C5083
:107CF8002226000E2322242225222D502826000E7B
:107D080029222A222B2224C025F023C024F022C0B5
:107D180023F0226A19501602F3CF2CF0F4CF2DF07D
:107D28002C5022262D502322000E2422000E25221C
:107D38001A501502F3CF2CF0F4CF2DF02C50222638
:107D48002D502322000E2422000E252224C025F0C7
:107D580023C024F022C023F0226A19501502F3CF61
:107D68002CF0F4CF2DF02C5022262D502322000E7B
:107D78002422000E25221B501602F3CF2CF0F4CF3C
:107D88002DF02C5028262D502922000E2A22000ED4
:107D98002B221A501702F3CF2CF0F4CF2DF02C50D1
:107DA80028262D502922000E2A22000E2B221B5095
:107DB8001702F3CF2CF0F4CF2DF02C501D6E2D5060
:107DC8001E6E1F6A206A1FC020F01EC01FF01DC053
:107DD8001EF01D6A1D5028261E5029221F502A22D7
:107DE80020502B2222C01DF023C01EF024C01FF0FB
:107DF80025C020F0190E06EF3FF0D89020321F3230
:107E08001E321D32E82E01EF3FF01D5028261E506D
:107E180029221F502A2220502B2224C025F023C0BB
:107E280024F022C023F0226A265027C01DF01E6AC3
:107E38001D26000E1E22820E1D242C6EFF0E1E20F3
:107E48002D6E3EEF3FF0D890283629362A362B364D
:107E580025AE31EF3FF033EF3FF034EF3FF02880AD
:107E6800D89022362336243625362C06D8A02D065F
:107E78003EEF3FF02AAE43EF3FF045EF3FF027EFEC
:107E88003FF047EF3FF0000E266E25AE4EEF3FF075
:107E980050EF3FF078EF3FF0FF0E22141D6EFF0EFB
:107EA80023141E6EFF0E24141F6E7F0E2514206EE1
:107EB8001D501E101F102010D8B465EF3FF067EF5B
:107EC8003FF06BEF3FF0010E266E78EF3FF028A0F1
:107ED80070EF3FF072EF3FF078EF3FF0010E266E43
:107EE80078EF3FF078EF3FF02650D8B47EEF3FF0C0
:107EF80080EF3FF0A8EF3FF0010E2826000E292260
:107F08002A222B222BA08BEF3FF08DEF3FF0A8EF1A
:107F18003FF028C01DF029C01EF02AC01FF02BC05A
:107F280020F0203420321F321E321D321DC028F0AE
:107F38001EC029F01FC02AF020C02BF02C4A2D2A81
:107F4800A8EF3FF0A8EF3FF02DBEB3EF3FF02D5064
:107F580008E12C28D8A0B3EF3FF0B5EF3FF0BFEF12
:107F68003FF0000E286E000E296E800E2A6E7F0EDE
:107F78002B6EF3EF3FF02DBECCEF3FF02D5006E116
:107F88002C04D8B0CAEF3FF0CCEF3FF0D8EF3FF069
:107F9800000E286E000E296E000E2A6E000E2B6E43
:107FA800000E216EF3EF3FF02CC027F0FF0E2816CD
:107FB800FF0E29167F0E2A16000E2B1627A0E7EFB4
:107FC8003FF0E9EF3FF0ECEF3FF02A8EECEF3FF0A7
:107FD800D89027302B6EF3EF3FF0F3EF3FF02150AE
:107FE8002B1228C015F029C016F02AC017F02BC094
:087FF80018F0FFEF3FF012004A
:020000040020DA
:08000000FFFFFFFFFFFFFFFF00
:020000040030CA
:0E000000FF081B1EFF8381FF0FC00FE00F40A3
:00000001FF
